:100000000C9458000C9480000C9480000C94800098
:100010000C9480000C9480000C9480000C94800060
:100020000C9480000C9480000C9480000C94800050
:100030000C9480000C9480000C9480000C94800040
:100040000C9456030C9480000C9424030C94FE0230
:100050000C9480000C9480000C9480000C94800020
:100060000C94A0030C9480000000000025002800E0
:100070002B00040404040404040402020202020229
:10008000030303030303010204081020408001025C
:1000900004081020010204081020000000080002DB
:1000A0000100000304070000000000000000CE046F
:1000B00011241FBECFEFD8E0DEBFCDBF11E0A0E01E
:1000C000B1E0E4E5FDE002C005900D92A63EB10767
:1000D000D9F723E0A6EEB1E001C01D92AC32B20721
:1000E000E1F710E0C8E5D0E004C02197FE010E94CE
:1000F0009D06C735D107C9F70E9407050C94A806CD
:100100000C94000090E0FC01E656FF4F2491FC01A6
:10011000EA57FF4F3491FC01EE58FF4FE491EE2374
:10012000B1F1222339F1233091F038F42130A9F0D4
:10013000223001F584B58F7D12C0273091F0283030
:10014000A1F02430B9F4809180008F7D03C08091AC
:1001500080008F77809380000DC084B58F7784BD39
:1001600009C08091B0008F7703C08091B0008F7D6F
:100170008093B000F0E0EE0FFF1FE859FF4FA5910C
:10018000B4918FB7F894EC913E2B3C938FBF0895B8
:10019000CF92DF92EF92FF920F931F93CF93DF9353
:1001A0006C017A018B01C0E0D0E0CE15DF0589F04B
:1001B000D8016D918D01D601ED91FC910190F081F6
:1001C000E02DC6010995892B11F47E0102C021960C
:1001D000ECCFC701DF91CF911F910F91FF90EF906E
:1001E000DF90CF900895FC01918D828D981761F07A
:1001F000828DDF01A80FB11D5D968C91928D9F5F5E
:100200009F73928F90E008958FEF9FEF0895FC0108
:10021000918D828D981731F0828DE80FF11D858DBB
:1002200090E008958FEF9FEF0895FC01918D228D4E
:10023000892F90E0805C9F4F821B91098F739927D3
:10024000089583E892E00E94150121E0892B09F4CA
:1002500020E0822F0895FC01848DDF01A80FB11DDD
:10026000A35ABF4F2C91848D90E001968F739927EC
:10027000848FA689B7892C93A089B1898C918064D9
:100280008C93938D848D981306C00288F389E02D9A
:1002900080818F7D80830895EF92FF920F931F934B
:1002A000CF93DF93EC0181E0888F9B8D8C8D981329
:1002B00005C0E889F989808185FD24C0F62E0B8D63
:1002C00010E00F5F1F4F0F731127E02E8C8DE81287
:1002D0000CC00FB607FCFACFE889F989808185FF49
:1002E000F5CFCE010E942B01F1CF8B8DFE01E80FDF
:1002F000F11DE35AFF4FF0820B8FEA89FB89808161
:10030000806207C0EE89FF896083E889F98980816E
:100310008064808381E090E0DF91CF911F910F9105
:10032000FF90EF900895CF93DF93EC01888D8823A1
:10033000C9F0EA89FB89808185FD05C0A889B98952
:100340008C9186FD0FC00FB607FCF5CF808185FF2D
:10035000F2CFA889B9898C9185FFEDCFCE010E949B
:100360002B01E7CFDF91CF91089580E090E0892BBA
:1003700029F00E94210181110C94000008953FB7DB
:10038000F8948091320290913302A0913402B0919E
:10039000350226B5A89B05C02F3F19F00196A11D77
:1003A000B11D3FBFBA2FA92F982F8827820F911D0B
:1003B000A11DB11DBC01CD0142E0660F771F881F52
:1003C000991F4A95D1F7089585ED8093BC008091DF
:1003D000BC0084FDFCCF10925E020895409108029B
:1003E000262F30E0240F311D21323105DCF420911D
:1003F0005E022430C9F4FC0180E090E0861758F4D6
:10040000309108022191DC01AA51BE4FA30FB11D0A
:100410002C930196F3CF80910802680F6093080235
:1004200080E0089581E0089582E00895089581E0D4
:1004300090E03091370220913602321710F480E0BC
:1004400090E091958195910908958091370290915E
:100450003602891730F48F5F8093370280E090E096
:1004600008958FEF9FEF08958091360290E02091DC
:100470003702821B91090895CF92DF92EF92FF928B
:100480000F931F93CF93DF937C01262F972F8A0121
:1004900080915F02882391F0C62FD72F6E01C40E82
:1004A000D51ECC15DD0571F06991D701ED91FC9158
:1004B0000190F081E02DC7010995F3CF642F822FC1
:1004C0000E94EE01C801DF91CF911F910F91FF9023
:1004D000EF90DF90CF900895CF93DF931F92CDB729
:1004E000DEB7698320915F022223D1F0209182023E
:1004F000203240F021E030E0FC013383228380E0B1
:1005000090E015C080916002E82FF0E0EF59FD4FB8
:10051000998190838F5F809360028093820205C0EF
:1005200061E0CE0101960E94EE0181E090E00F9023
:10053000DF91CF910895009769F0FC0101900020B0
:10054000E9F73197AF01481B590BBC0183E892E0F2
:100550000C94C80080E090E00895CF93DF930E9450
:100560009B02EC0180E291E00E949B028C0F9D1F98
:10057000DF91CF9108958F929F92AF92BF920F9388
:100580001F93CF93DF93CDB7DEB7A1970FB6F89443
:10059000DEBF0FBECDBF19A2423008F44AE08E0183
:1005A0000F5D1F4F842E912CA12CB12CA50194011D
:1005B0000E947B06E62FB901CA0101501109EA30F9
:1005C00014F4E05D01C0E95CD801EC93232B242BEB
:1005D000252B61F7C8010E949B02A1960FB6F894E3
:1005E000DEBF0FBECDBFDF91CF911F910F91BF90A6
:1005F000AF909F908F9008950E94A3061F920F9234
:100600000FB60F9211242F933F934F935F936F93E5
:100610007F938F939F93AF93BF93EF93FF9383E861
:1006200092E00E942B01FF91EF91BF91AF919F91BA
:100630008F917F916F915F914F913F912F910F908B
:100640000FBE0F901F9018951F920F920FB60F922A
:1006500011242F938F939F93EF93FF93E091930235
:10066000F09194028081E0919902F0919A0282FDCA
:1006700012C0908180919C028F5F8F7320919D02A8
:10068000821751F0E0919C02F0E0ED57FD4F958FFD
:1006900080939C0201C08081FF91EF919F918F9187
:1006A0002F910F900FBE0F901F9018951F920F92D1
:1006B0000FB60F9211242F933F938F939F93AF9375
:1006C000BF9380912E0290912F02A0913002B091A1
:1006D000310230912D0223E0230F2D3720F40196B3
:1006E000A11DB11D05C026E8230F0296A11DB11D55
:1006F00020932D0280932E0290932F02A09330021C
:10070000B09331028091320290913302A091340271
:10071000B09135020196A11DB11D809332029093D4
:100720003302A0933402B0933502BF91AF919F91F1
:100730008F913F912F910F900FBE0F901F901895A2
:100740001F920F920FB60F9211242F933F934F9346
:100750005F936F937F938F939F93AF93BF93EF9329
:10076000FF938091B900887F803609F49CC068F5BA
:10077000883209F45BC090F4803109F454C038F435
:10078000882309F4F6C0883009F44DC0F6C08831DA
:1007900009F44CC0803209F45DC0EFC0803409F424
:1007A00068C048F4803309F455C0883309F0E5C0C7
:1007B00080935C02D8C0803509F44FC0883509F4B5
:1007C0005DC0883409F0D9C0D6C0883909F4C7C0E3
:1007D000A8F4883709F467C038F4883609F463C090
:1007E000803709F460C0C9C0883809F4B8C08039BE
:1007F00009F45FC0803809F0C0C05BC0803B09F4D9
:1008000086C038F4803A09F466C0883A09F47FC09B
:10081000B4C0803C09F4A7C0883C09F4A4C0883B5C
:1008200009F48AC0AAC08091390210C090915B027D
:1008300080915A02981770F5E0915B0281E08E0F6B
:1008400080935B02F0E0E65CFD4F80818093BB000B
:1008500085EC86C080935C028EC0E0915B0281E0F3
:100860008E0F80935B028091BB00F0E0E65CFD4F51
:10087000808390915B0280915A026EC0E0915B028E
:1008800081E08E0F80935B028091BB00F0E0E65C1C
:10089000FD4F808380915D0281116DC081E0809366
:1008A000380284EA61C083E080935E0210922C02D9
:1008B000CFCF80912C02803208F051C0E0912C0201
:1008C00081E08E0F80932C028091BB00F0E0E45F0A
:1008D000FD4F8083BDCF85EC8093BC0010925E02FB
:1008E00080912C02803230F4E0912C02F0E0E45F41
:1008F000FD4F108260912C0270E0E0910A02F091AD
:100900000B028CE092E0099510922C0236C084E034
:1009100080935E021092090210920802E091060292
:10092000F0910702099580910802811105C081E0CC
:10093000809308021092E601E091090281E08E0F97
:1009400080930902F0E0EA51FE4F80818093BB0062
:100950009091090280910802981708F479CF85E8F0
:100960008093BC000AC085EC8093BC0010925E02AC
:1009700004C010925C020E94E401FF91EF91BF91CC
:10098000AF919F918F917F916F915F914F913F9127
:100990002F910F900FBE0F901F901895E3E8F2E093
:1009A0001382128288EE93E0A0E0B0E08483958306
:1009B000A683B78324E031E03183208325EC30E047
:1009C0003587248724EC30E03787268720EC30E019
:1009D000318B208B21EC30E0338B228B22EC30E00A
:1009E000358B248B26EC30E0378B268B118E128EC4
:1009F000138E148EE0E2F3E01382128284839583D7
:100A0000A683B78384E191E09183808308957894ED
:100A100084B5826084BD84B5816084BD85B5826003
:100A200085BD85B5816085BD80916E0081608093B4
:100A30006E0010928100809181008260809381001D
:100A4000809181008160809381008091800081602D
:100A5000809380008091B10084608093B100809188
:100A6000B00081608093B00080917A0084608093B0
:100A70007A0080917A00826080937A0080917A0077
:100A8000816080937A0080917A00806880937A00F8
:100A90001092C1001092370210923602109260023A
:100AA0001092820210925E0281E080935D021092A9
:100AB000380282E10E94820083E10E9482008091DC
:100AC000B9008E7F8093B9008091B9008D7F8093AB
:100AD000B90088E48093B80085E48093BC00E0917D
:100AE0009302F091940282E08083E0918F02F09172
:100AF00090021082E0919102F09192028FEC80833B
:100B000010929B02E0919702F091980286E0808318
:100B1000E0919502F0919602808180618083E0915E
:100B20009502F0919602808188608083E091950221
:100B3000F0919602808180688083E0919502F09127
:100B4000960280818F7D808383E291E00E94AD02D6
:100B500005EE65ECB62E11E072E0A72E99249A946A
:100B60008FE391E00E94AD02C12CD12C7601C39499
:100B7000C0E0D0E010935F02C09281021092600248
:100B80001092820280915E028111FCCFA0925E02DF
:100B900010935D0290925C0210925B0210925A02D6
:100BA00010923902909139029601220F331F292B9E
:100BB0002093390290913802913069F410923802F2
:100BC000909139029093BB009091BC0093FDF8CFB7
:100BD000B092BC0002C00093BC0090915E029230C3
:100BE000E1F390915C029F3F69F080915C0280325A
:100BF00031F080915C02803321F084E003C082E018
:100C000001C083E0109260021092820210925F0293
:100C1000811119C08DE491E00E949B0220E1C2166F
:100C2000D104E104F10420F48BE791E00E949B02DF
:100C300040E1C701B6010E94BB0280E291E00E9440
:100C40009B02219619C08430B9F48DE791E00E948F
:100C50009B0280E1C816D104E104F10420F48BE783
:100C600091E00E949B0240E1C701B6010E94BB02D5
:100C700080E291E00E949B022FEFC21AD20AE20AA0
:100C8000F20A8FE7C816D104E104F10409F072CF2B
:100C9000CD2B19F482EA91E002C08FED91E00E9421
:100CA000AD020E94BF012B013C0188E8C82E83E100
:100CB000D82EE12CF12C0E94BF01DC01CB0184195C
:100CC0009509A609B709883E9340A105B10558F0DA
:100CD00021E0C21AD108E108F10888EE480E83E04D
:100CE000581E611C711CC114D104E104F10419F7F0
:100CF0000E94B50135CFA1E21A2EAA1BBB1BFD0134
:100D00000DC0AA1FBB1FEE1FFF1FA217B307E407EA
:100D1000F50720F0A21BB30BE40BF50B661F771F42
:100D2000881F991F1A9469F7609570958095909522
:100D30009B01AC01BD01CF010895EE0FFF1F05908F
:100D4000F491E02D099481E090E0F8940C94A806C9
:040D5000F894FFCF45
:100D5400000000004C01C8001501F30007019301D5
:100D6400000000006C023C02340225021702160245
:100D74000D0A000A457363616E6572206465206420
:100D84006972656363696F6E657320493243004518
:100D94007363616E65616E646F2E2E2E00446973F9
:100DA400706F73697469766F2049324320656E638E
:100DB4006F6E747261646F20656E206C612064696B
:100DC40072656363696F6E2030780030004572721B
:100DD4006F7220646573636F6E6F6369646F2065FF
:100DE4006E206C6120646972656363696F6E203084
:100DF40078004E6F2073652068616E20656E636FA6
:100E04006E747261646F20646972656363696F6E86
:100E1400657320493243206465206E696E67756E80
:100E240020646973706F73697469766F200A00486F
:060E34006563686F0A000F
:107800000C94343C0C94513C0C94513C0C94513CE1
:107810000C94513C0C94513C0C94513C0C94513CB4
:107820000C94513C0C94513C0C94513C0C94513CA4
:107830000C94513C0C94513C0C94513C0C94513C94
:107840000C94513C0C94513C0C94513C0C94513C84
:107850000C94513C0C94513C0C94513C0C94513C74
:107860000C94513C0C94513C11241FBECFEFD8E036
:10787000DEBFCDBF11E0A0E0B1E0ECE9FFE702C060
:1078800005900D92A230B107D9F712E0A2E0B1E065
:1078900001C01D92AD30B107E1F70E942D3D0C945F
:1078A000CC3F0C94003C982F959595959595959582
:1078B000905D8F708A307CF0282F295A8091C0000B
:1078C00085FFFCCF9093C6008091C00085FFFCCF60
:1078D0002093C6000895282F205DF0CF982F809127
:1078E000C00085FFFCCF9093C6000895EF92FF92F1
:1078F0000F931F93EE24FF2487018091C00087FD22
:1079000017C00894E11CF11C011D111D81E4E8164B
:1079100082E4F8068FE0080780E0180770F3E09132
:107920000401F091050109958091C00087FFE9CF1E
:107930008091C6001F910F91FF90EF9008950E94D3
:10794000763C982F8091C00085FFFCCF9093C600B5
:1079500091362CF490330CF09053892F089597555D
:10796000892F08951F930E949F3C182F0E949F3CCF
:107970001295107F810F1F9108951F93182F882350
:1079800021F00E94763C1150E1F71F9108951F935A
:10799000182F0E94763C803249F0809103018F5F5E
:1079A000809303018530C1F01F9108958091C0003C
:1079B00085FFFCCF84E18093C6008091C00085FFE5
:1079C000FCCF1093C6008091C00085FFFCCF80E102
:1079D0008093C6001F910895E0910401F091050184
:1079E00009951F9108950E94763C803241F0809164
:1079F00003018F5F80930301853081F008958091AA
:107A0000C00085FFFCCF84E18093C6008091C00058
:107A100085FFFCCF80E18093C6000895E0910401CA
:107A2000F09105010995089540E951E08823A1F0FE
:107A30002D9A28EE33E0FA013197F1F721503040CA
:107A4000D1F72D9828EE33E0FA013197F1F7215064
:107A50003040D1F7815061F708953F924F925F9285
:107A60006F927F928F929F92AF92BF92CF92DF924E
:107A7000EF92FF920F931F93CF93DF93000080E16B
:107A80008093C4001092C50088E18093C10086E015
:107A90008093C2005098589A259A81E00E94143D24
:107AA00024E1F22E9EE1E92E85E9D82E0FE0C02ECA
:107AB00010E1B12EAA24A394B1E49B2EA6E58A2E50
:107AC000F2E57F2EE0E26E2E79E4572E63E5462E36
:107AD00050E5352E0E94763C8033B1F18133B9F107
:107AE000803409F46FC0813409F476C0823409F41B
:107AF00085C0853409F488C0803531F1823521F1A3
:107B0000813511F1853509F485C0863509F48DC0BC
:107B1000843609F496C0843709F403C1853709F423
:107B200072C1863709F466C0809103018F5F80932C
:107B30000301853079F6E0910401F0910501099582
:107B40000E94763C803351F60E94F33CC3CF0E94E2
:107B5000763C803249F78091C00085FFFCCFF092DF
:107B6000C6008091C00085FFFCCF9092C600809136
:107B7000C00085FFFCCF8092C6008091C00085FFC9
:107B8000FCCF7092C6008091C00085FFFCCF609250
:107B9000C6008091C00085FFFCCF5092C600809146
:107BA000C00085FFFCCF4092C6008091C00085FFD9
:107BB000FCCF3092C6008091C00085FFFCCFB09210
:107BC000C60088CF0E94763C863808F4BDCF0E945C
:107BD000763C0E94F33C7ECF0E94763C803809F4CC
:107BE0009CC0813809F40BC1823809F43CC1883942
:107BF00009F48FC080E00E94C73C6CCF84E10E94F2
:107C0000BD3C0E94F33C66CF85E00E94BD3C0E94D3
:107C1000F33C60CF0E94763C809306010E94763C44
:107C2000809307010E94F33C55CF0E94763C80333D
:107C300009F41DC183E00E94BD3C80E00E94C73C66
:107C400049CF0E94763C809309020E94763C809343
:107C5000080280910C028E7F80930C020E94763C79
:107C6000853409F415C18091080290910902892B8D
:107C700089F000E010E00E94763CF801E85FFE4FDA
:107C800080830F5F1F4F80910802909109020817AF
:107C9000190788F30E94763C803209F045CF809125
:107CA0000C0280FF01C16091060170910701660F0F
:107CB000771F7093070160930601A0910802B091AD
:107CC00009021097C9F0E8E0F1E09B01AD014E0F09
:107CD0005F1FF999FECF32BD21BD819180BDFA9A17
:107CE000F99A2F5F3F4FE417F50799F76A0F7B1F4B
:107CF00070930701609306018091C00085FFFCCF5F
:107D0000F092C6008091C00085FFFCCFB092C60003
:107D1000E1CE83E00E94C73CDDCE82E00E94C73CFA
:107D2000D9CE0E94763C809309020E94763C8093D3
:107D300008028091060190910701880F991F909386
:107D40000701809306010E94763C853409F4A6C0A1
:107D500080910C028E7F80930C020E94763C8032D0
:107D600009F0B8CE8091C00085FFFCCFF092C6002C
:107D7000609108027091090261157105B9F140E046
:107D800050E080910C02A82FA170B82FB27011C0E2
:107D9000BB2309F45CC0E0910601F0910701319624
:107DA000F0930701E09306014F5F5F4F46175707B7
:107DB000E8F4AA2369F3F999FECF209106013091E6
:107DC000070132BD21BDF89A90B58091C00085FFB2
:107DD000FCCF9093C6002F5F3F4F30930701209355
:107DE00006014F5F5F4F4617570718F38091C00099
:107DF00085FDE5CE8091C00085FFF8CFE0CE81E023
:107E00000E94C73C67CE0E94763C803209F08CCE3F
:107E10008091C00085FFFCCFF092C6008091C00029
:107E200085FFFCCFE092C6008091C00085FFFCCFAB
:107E3000D092C6008091C00085FFFCCFC092C600E2
:107E40008091C00085FFFCCFB092C60043CEE09188
:107E50000601F091070194918091C00085FFFCCF4D
:107E60009093C6009CCF80E10E94C73C33CE0E9415
:107E7000763C0E94763C182F0E94763C112309F430
:107E800083C0113009F484C08FE00E94C73C22CE29
:107E900080910C02816080930C02E5CE80910C02EF
:107EA000816080930C0259CF809107018823880F4D
:107EB000880B8A2180930B02809106019091070123
:107EC000880F991F90930701809306018091080203
:107ED00080FF09C080910802909109020196909359
:107EE000090280930802F894F999FECF1127E091D6
:107EF0000601F0910701C8E0D1E08091080290915D
:107F00000902103091F40091570001700130D9F34B
:107F100003E000935700E89500915700017001308D
:107F2000D9F301E100935700E89509901990009169
:107F3000570001700130D9F301E000935700E89534
:107F40001395103498F011270091570001700130FB
:107F5000D9F305E000935700E895009157000170B0
:107F60000130D9F301E100935700E895329602976A
:107F700009F0C7CF103011F00296E5CF112480919F
:107F8000C00085FFB9CEBCCE8EE10E94C73CA2CD19
:0C7F900085E90E94C73C9ECDF894FFCF0D
:027F9C00800063
:040000030000780081
:00000001FF